:100000005EEF0BF068961200046ED8CF05F0E0CFDB
:1000100006F00001E9CF0CF0EACF07F0E1CF08F0DD
:10002000E2CF09F0D9CF0AF0DACF0BF0F3CF12F01C
:10003000F4CF13F0FACF14F000C00EF001C00FF0AF
:1000400002C010F003C011F09DA02AEF00F09EB096
:10005000E5EF06F0F2A830EF00F0F2B2EEEF06F0B6
:10006000F0A836EF00F0F0B206EF07F0A0AA3CEFE0
:1000700000F0A1BAACEF06F00EC000F00FC001F026
:1000800010C002F011C003F00CC0E9FF07C0EAFF86
:10009000078E08C0E1FF09C0E2FF0AC0D9FF0BC00C
:1000A000DAFF12C0F3FF13C0F4FF14C0FAFF0450CC
:1000B00006C0E0FF05C0D8FF1000F76ACA0FF66E51
:1000C000000EF7220900F55012000003FFFFFFFFAA
:1000D000FFFFFFFFFFFFFFFFFFFFF76AEA0FF66E6C
:1000E000000EF7220900F550120040000800000041
:1000F0000000000000000000000000000000000000
:1001000000000000000000000000F76A1A0FF66E01
:10011000010EF7220900F550120040000400000013
:1001200000000000000000000000000000000000CF
:1001300000000000000000000000F76A4A0FF66EA1
:10014000010EF7220900F550120005010906A10170
:10015000050719E029E715002501750195088102B9
:100160009501750881019505750105081901290595
:100170009102950175039101950575081500256596
:100180000507190029658100C000F76A9A0FF66E0D
:10019000010EF7220900F55012000000F76AAC0FBB
:1001A000F66E010EF7220900F55012003F00F76AC3
:1001B000BE0FF66E010EF7220900F550120009027B
:1001C000290001010080320904000002030101003E
:1001D000092100010001223F000705810308000AF0
:1001E0000705010304000A00F76AF80FF66E010E16
:1001F000F7220900F55012000100F76A0A0FF66EA7
:10020000020EF7220900F55012001200F76A1C0FC7
:10021000F66E020EF7220900F550120012011001CD
:100220000000004061046A03000101020001F76A56
:100230003E0FF66E020EF7220900F5501200000480
:100240000A00F76A520FF66E020EF7220900F55007
:1002500012000403090406034A004C002E03550053
:1002600053004200200046007500740075007200C3
:100270006F00200049006E00740065006C0069008A
:10028000670065006E00740065006D92699468A453
:1002900002D06894FCD7B8EF06F0400E0401016F5D
:1002A000040E036F100E026F880E006F046B040EB5
:1002B000076F500E066F0001120070A002D0EDDF34
:1002C0007090689ABFEF06F06A6A6892C4EF06F011
:1002D0009A9199BF9A81999F9951100803E2000E53
:1002E000016E20D09AA110D0036A9951F2CF9BF0F1
:1002F000F29EE3DE9BBFF28EFF0802E1000E01D00A
:10030000010E016E0FD00ED0036A9951F2CF9BF00F
:10031000F29ED3DE9BBFF28EFF0802E1000E01D0F9
:10032000010E016E1200036A9851700FE96E0F0EF4
:100330000320EA6EEF6A98C099F0CADF015218E014
:100340009851080DF3509A6BE96E040E9A25EA6EE7
:10035000EF6A9851080DF3509A6B996F040E992724
:10036000000E9A2399C0E9FF040E9A25EA6EEF6AFF
:100370001200010E976F97510F0805E397C098F090
:10038000D2DF972BF8D71200226A216A8D6B8D532A
:100390000AE1036A8D51230FE96E000E0320EA6E15
:1003A000EF6A8D2BF4D7186A010E196E176A1200C6
:1003B0006A6A686A9F0E6B6E3D0E696E6E6AD9DF5F
:1003C000E3DF160E706E68A602D01CDEFCD76D98B7
:1003D00064DF030E1C6EC9EF06F0698468986D82B5
:1003E000CEEF06F0689CD3EF06F092C01DF012002D
:1003F0001D681200906B2150221046E090513F087A
:1004000043E31A50FC0F2EE2040F4FEF02F020C01E
:1004100003F01F50F2CF92F0F29EC9DE92BFF28E2F
:10042000916F20D020C003F01F50F2CF92F0F29EC7
:1004300084DE92BFF28E916F15D020C003F01F5062
:10044000F2CF92F0F29EFDDE92BFF28E916F0AD053
:1004500020C003F01F50F2CF92F0F29ED7DE92BF81
:10046000F28E916F1F2AD8B4202A2150D8B42206C8
:1004700021069051902B036A500FE96E040E032061
:10048000EA6E91C0EFFFB7D72150221004E19051DE
:10049000400801E0176A90C092F0A7DF1200E8243C
:1004A000F76AF736B90FF66E040EF7220A00F55018
:1004B000FA6E0800F550F96E0E0424043A04500454
:1004C000206A1F6A1A6A04011351010A000109E037
:1004D000030A0DE0010A0FE0220A2BE0030A4FE0B5
:1004E0007AD0226A120E216E030E1A6E76D0226A1C
:1004F000290E216E72D0020E1A6E036A0401125187
:10050000F2CF90F0F29E000192DE90BFF28E036A6D
:100510001F6E03C020F020C003F01F50F2CF90F0F8
:10052000F29E8FDE90BFF28E036A216E03C022F02E
:1005300054D0D89004011235036AF2CF90F0F29EA5
:1005400000015BDE0900F5CF03F090BFF28E1F6E55
:1005500003C020F01F3C02D020520FE020C003F067
:100560001F50F2CF90F0F29E22DE90BFF28E036A0F
:10057000216E03C022F031D002D03ADF3DD0D890B6
:1005800004011435036AF2CF90F0F29E0001FDDD04
:100590000900F5CF03F090BFF28E1F6E03C020F06C
:1005A0001F3C02D0205215E0010E1A6ED8900401B3
:1005B0001435036AF2CF90F0F29E0001EFDD0900DE
:1005C000F5CF03F090BFF28E216E03C022F005D06C
:1005D00002D00EDF11D00CDF0FD00401175308E159
:1005E000225203E12150165D03E2226A16C421F073
:1005F000010E176E0001FEDE12008F5304E1040E9F
:100600001C6EB7DED1D0050E1C6E040E926F900EDC
:10061000916F010E906F90510F08D8A0C5D090C077
:1006200098F081DE936B036A9051F2CF97F0F29EBF
:1006300044DD97BFF28EFF0859E0040E936FD89007
:100640009035036AF2CF97F0F29E5FDD0900F5CF97
:1006500003F097BFF28E946F03C095F09051080D90
:10066000F350986B976F010E9725016E000E98213D
:10067000036E01C0E9FF040E0324EA6E94C0EFFF8D
:100680009051080DF350986B976F020E9725016EED
:10069000000E9821036E01C0E9FF040E0324EA6EE8
:1006A00092C0ECFFED5291C0EFFFD8909035036AF5
:1006B000F2CF97F0F29E29DD0900F5CF03F097BF46
:1006C000F28E912703509223880E966F95A101D048
:1006D000968195A301D096839051080DF350986BA5
:1006E000E96E040E9825EA6E96C0EFFF036A9051FA
:1006F000F2CF97F0F29EE1DC97BFF28EFF0839E06F
:1007000093839051080DF350986B976F040E9727C1
:10071000000E9823020E9725016E000E9821036E9D
:1007200001C0E9FF040E0324EA6E92C0ECFFED5213
:1007300091C0EFFFD8909035036AF2CF97F0F29E08
:10074000CCDC0900F5CF03F097BFF28E9127035060
:1007500092239051080DF350986B976F040E9727D2
:10076000000E982397C0E9FF040E9825EA6E400E0C
:10077000EF6E9351060802E10E0E936F036A9051DB
:10078000F2CF97F0F29E99DC97BFF28E010801E05C
:100790009389036A9051700FE96E0F0E0320EA6E81
:1007A00093C0EFFF902B37D723EF04F004011151D2
:1007B000000A00010DE0010A14E0020A1FE0060A27
:1007C00029E0030A2EE00E0A2EE0010A32E040D0B2
:1007D00019C050F40401516B020E0001926F05DE46
:1007E00038D00401122D07D0010E19160001926BAA
:1007F000FCDD03D004010001FBDD2BD00401122D30
:1008000006D019820001926BF0DD03D004010001D3
:10081000EFDD1FD0020E176E12C41EF0926BE5DDE5
:1008200018D04EDE16D018C050F4010E926FDDDDE8
:1008300010D004011251010809E312C418F012C4C7
:100840008FF00001DAD6926BD0DD0401000101D0F7
:10085000CFDD36EF05F018C08FF004011151000A0A
:10086000000107E00A0A0DE0010A2DE00D0A3DE053
:100870003ED00401506B516B020E0001926FB5DD4A
:1008800037D08F531EE0010E8F5D036AF2CF90F0D8
:10089000F29EAADC90BFF28E016E0401145DD8A016
:1008A00002D000010ED0036A1451230FE96E000E2E
:1008B0000320EA6EEFCF50F4010E0001926F95DD38
:1008C00001D096DD15D08F530EE0036A0401145158
:1008D000230FE96E000E0320EA6E12C4EFFF000141
:1008E000926B83DD01D084DD03D0EADD01D080DDB1
:1008F00036EF05F090918FBF90818F9F90A111D01E
:100900008F51080DF350926B916F040E9127000EDA
:10091000922391C0E9FF040E9225EA6E880EEF6ED5
:1009200009D08F51080DF350926BE96E040E922599
:10093000EA6EEF6AFCEF04F090918FBF90818F9F79
:1009400090A111D08F51080DF350926B916F040E4E
:100950009127000E922391C0E9FF040E9225EA6EC2
:10096000840EEF6E0AD08F51080DF350926BE96E32
:10097000040E9225EA6E840EEF6E02EF05F0909160
:100980008FBF90818F9F90A111D08F51080DF35090
:10099000936B926F040E9227000E932392C0E9FF8F
:1009A000040E9325EA6EEFCF91F00AD08F51080D17
:1009B000F350936BE96E040E9325EA6EEFCF91F03E
:1009C00091AF02D091B502D0000E01D0010E016EA0
:1009D0000CEF05F014C499F07BDC015228E004010F
:1009E0001151010A000105E0020A09E0030A0DE0C5
:1009F0001DD014C48FF07ED7926BF7DC18D014C4CE
:100A00008FF09AD7926BF1DC12D00401506B516BCE
:100A100014C48FF00001B3D7015204E0010E0401A9
:100A2000506F0001020E926FE0DC01D0E1DC36EF86
:100A300005F0040111510001DBDC36EF05F0176A07
:100A4000040110517F0B000A000107E0010A07E0D2
:100A5000030A07E0230A07E008D0A8D607D0FBD690
:100A600005D0B8D703D0E5D701D0C2DC62EF06F0DD
:100A70008F51080DF350956BE96E040E9525EA6EC3
:100A8000EFCF91F09051020806E191AD02D0906B4A
:100A900002D0010E906F9051030813E1840E916F04
:100AA0008F51080DF350956B946F040E9427000E30
:100AB000952394C0E9FF040E9525EA6E840EEF6E2F
:100AC00007D0902D03D0C80E916F02D0880E916F81
:100AD000D8908F35036AF2CF94F0F29E85EC00F047
:100AE0000900F5CF03F094BFF28E926F03C093F02C
:100AF0008F51080DF350956B946F010E9425016E84
:100B0000000E9521036E01C0E9FF040E0324EA6E76
:100B100092C0EFFF93A101D0918193A301D0918363
:100B20008F51080DF350956BE96E040E9525EA6E12
:100B300091C0EFFF1200036A9451700FE96E0F0E1F
:100B40000320EA6EEF5212E09451080DF350966BB9
:100B5000956F040E9527000E962395C0E9FF040EAD
:100B60009625EA6EEFCF97F097AF02D0000E01D036
:100B7000010E016E12008FC094F0DDDF015263E0C0
:100B80008F51080DF350956B946F040E9427000E4F
:100B90009523010E9425016E000E9521036E01C070
:100BA000E9FF040E0324EA6E90C0EFFF92510208A1
:100BB00017E18F51080DF350956B946F040E942735
:100BC000000E952394C0E9FF040E9525EA6EEFCF41
:100BD00093F093AD02D0926B02D0010E926F13D0BE
:100BE0009251040810E18F51080DF350956BE96E96
:100BF000040E9525EA6EEFCF93F093AD03D0010E6E
:100C0000926F01D0926B922D03D0C80E936F02D0D9
:100C1000880E936F91A101D0938191A301D093830A
:100C20008F51080DF350956B946F040E9427000EAE
:100C3000952394C0E9FF040E9525EA6E93C0EFFF5B
:100C4000010E016E02D0000E016E12008F5300E102
:100C5000120090C06EFF905303E0040E1C6E02D091
:100C6000020E1C6E39EF06F0186A176A1EC090F06B
:100C7000F0D746EF06F08F5309E1172C03D0FAECBA
:100C800001F004D017500208D8B4EED712001B3080
:100C90008D6F8D338D331F0E8D171B5241E1040173
:100CA00000513C0B00018E6F430E04010017000140
:100CB0008E5134081EE104010451800B01E0046BE5
:100CC0000001BDD66D981D3C05D08F6B030E906F53
:100CD000CFDE0ED08F6B020E906FCADE1D50FE0865
:100CE00007E08F6B916B1DC090F0040E926F43DF95
:100CF00016D08E51040813E18F6BA8DF8F6B020EA4
:100D0000906FB6DE1D50FE080AE01D3C01D007D0F2
:100D10008F6B916B1DC090F0010E926F2CDF1AD07B
:100D20001B5004080EE11D688F6BA5DF1D3C01D030
:100D300007D08F6B916B1DC090F0020E926F1BDF7E
:100D400009D01BB404D08DC08FF080DF03D08DC0DC
:100D50008FF091DFDDEF06F0A19A1C52D8B433D0AA
:100D60006852D8B430D068A403D069B445EF01F01C
:100D70006DB229D068AA03D069BA5DEF01F068A20C
:100D800003D069B264EF01F068A003D069B0D8EF76
:100D900001F068A803D069B8EDEF01F068AC03D0AA
:100DA00069BCF2EF01F08C6B68A608D069A606D08A
:100DB0006CCF1BF002EC00F06AD701D004D08C514C
:100DC0008C2B0308F1E23CEF00F03C2A3C50040875
:100DD00002E23B829D909E903CEF00F0392A6151E7
:100DE000612B036A3D0FE96E000E0320EA6EEF6A85
:100DF0003BA003D0CF6ACE6A06D03B80B50ECD6E45
:100E0000CF6ACE6A9D80F2923CEF00F06151612B77
:100E1000036A3D0FE96E000E0320EA6E010EEF6ECD
:100E20003A2A3BA003D0CF6ACE6A06D03B80B50EEB
:100E3000CD6ECF6ACE6A9D80F0923CEF00F0546197
:100E4000726A657461206C6569646120284C31297F
:100E50003A2025582C25582C25582C25582C0D0A7D
:100E600000004120636F6E7665727469723A2025C6
:100E7000582C25582C25582C25582C25582C2558CD
:100E80002C25582C25582C0D0A006572726F720D96
:100E90000A007465726D696E61646F0D0A00696E97
:100EA000696369616C697A616E646F00EA6A7B0EDE
:100EB000E96EEF500EE00F0E016E006A002EFED7B5
:100EC000012EFBD78F0E006E002EFED70000EF2EF6
:100ED000F2D71200939E8A9E080E016E00D0000089
:100EE000018E0ED0019E7E33D8B08A8ED8A08A9E05
:100EF000018C06D0019C012EF6D700D000008A8E0E
:100F0000610EE96EE92EFED700D0000001BEEAD7DF
:100F100001BCF0D712000900F5520CE0F6CF7BF0CF
:100F2000F7CF7CF0F5CF7EF0D5DF7BC0F6FF7CC03D
:100F3000F7FFF1D712006D6A696A080E6F6E945060
:100F40003009946E1C6A166AF2BE168EF29EC4ECCC
:100F500001F016BEF28EAEEF07F0EDD79BEF0BF06F
:100F6000396A3A6A3C6A3B903B92010E616F626B50
:100F7000625119080AE3036A62513D0FE96E000EDF
:100F80000320EA6EEF6A622BF3D7F292F092C00E62
:100F9000F2121200166AF2BE168EF29EC4EC01F036
:100FA00016BEF28E6D6A140E6F6E696A6D86010E42
:100FB0001C6EDEEF07F06DB601D0ECD71C2C0BD009
:100FC0006DBA09D0686A696AA08AC00EF212110E61
:100FD000696E020E1C6E12001850016EA6EF0BF027
:100FE0007B517D03F3CF01F0F4CF00F07E03F3508B
:100FF00000267C517D03F3500020026EABEF08F019
:101000000900F6CF7CF0F7CF7DF0F5CF7EF062DF00
:101010007CC0F6FF7DC0F7FF7B2FF2D712007CBFAC
:101020000FD00F0E006E7B3900160A0E005C03E233
:10103000300E002602D07C51002600C07EF04ADF30
:101040000F0E7B170A0E7B5D02E2300E02D07C9FF2
:101050007C517B277BC07EF03DDF12007A6B7A519A
:1010600009080AE3036A7A516E0FE96E000E032045
:10107000EA6EEF6A7A2BF3D7020E626F62510908AB
:1010800015E3036A62513D0FE96E000E0320EA6E1C
:10109000EF2C0AD0020E625D036A660FE96E000E45
:1010A0000320EA6EEF507427622BE8D70A0E626FB6
:1010B0006251110815E3036A62513D0FE96E000E9B
:1010C0000320EA6EEF2C0AD00A0E625D036A660FF7
:1010D000E96E000E0320EA6EEF507527622BE8D709
:1010E000120E626F6251190815E3036A62513D0FD7
:1010F000E96E000E0320EA6EEF2C0AD0120E625D3C
:10110000036A660FE96E000E0320EA6EEF50762741
:10111000622BE8D71A0E626F6251210815E3036A49
:1011200062513D0FE96E000E0320EA6EEF2C0AD0EB
:101130001A0E625D036A660FE96E000E0320EA6E06
:10114000EF507727622BE8D77C6B76C07BF0010EDF
:101150007E6F7D6B45D777510124786F000E02209A
:10116000796F3E0EF66E0E0EF76E140E7B6F48DF33
:1011700074C07BF0370E7C6F52DF2C0E7E6FAADEC0
:1011800075C07BF0370E7C6F4ADF2C0E7E6FA2DEBF
:1011900076C07BF0370E7C6F42DF2C0E7E6F9ADEBE
:1011A00077C07BF0370E7C6F3ADF5D0EF66E0E0E69
:1011B000F76E030E7B6F24DF51EF0BF0166AF2BE61
:1011C000168EF29E7BC094F0B6DC16BEF28E0152F3
:1011D00042E07B51080DF350846B836F040E83272C
:1011E000000E8423020E8325016E000E8421036EFF
:1011F00001C0E9FF040E0324EA6EECCF82F0ED5249
:10120000EFCF81F082C0EAFF81C0E9FF7DC0E2FF3D
:101210007CC0E1FF7FC002F07EC001F0015202E01D
:10122000022A02D0025206E0E6CFEEFF012EFCD7E2
:10123000022EFAD7166AF2BE168EF29E7BC08FF08F
:101240007FC091F07EC090F080C092F094DC16BE1A
:10125000F28E015002D0000E016E12007439006E41
:101260000F0E001600500F0B316E74510F0B326EC3
:101270007539006E0F0E001600500F0B336E75514E
:101280000F0B346E7639006E0F0E001600500F0BE8
:10129000356E76510F0B366E7739006E0F0E0016D5
:1012A00000500F0B376E77510F0B386E620EF66ED3
:1012B0000E0EF76E0D0E7B6FA3DE31C07BF0370E86
:1012C0007C6FADDE2C0E7E6F05DE32C07BF0370EFC
:1012D0007C6FA5DE2C0E7E6FFDDD33C07BF0370EFC
:1012E0007C6F9DDE2C0E7E6FF5DD34C07BF0370EFB
:1012F0007C6F95DE2C0E7E6FEDDD35C07BF0370EFA
:101300007C6F8DDE2C0E7E6FE5DD36C07BF0370EF8
:101310007C6F85DE2C0E7E6FDDDD37C07BF0370EF7
:101320007C6F7DDE2C0E7E6FD5DD38C07BF0370EF6
:101330007C6F75DE860EF66E0E0EF76E030E7B6FFB
:101340005FDE2A6A7A6B7A510708D8A078D12A6AB8
:101350002C6A010E7B6F7D6B2A0E7C6F7F6B070EF4
:101360007E6F020E806F2ADF0A0E7B6F9FDD23DE09
:10137000036A7A51310FE96E000E0320EA6EEF50D6
:101380002BE0010A3BE0030A4BE0010A5BE0070A9D
:10139000D8B46AD0010AD8B479D0030AD8B488D0B6
:1013A000010AD8B497D00F0AD8B4A6D0010AD8B48D
:1013B000B5D0030AD8B4C4D0010AD8B4D5D0070A2E
:1013C000D8B4E6D0010AD8B4F7D0030AD8B408D10B
:1013D000010AD8B419D12CD1270E2C6E010E7B6FC7
:1013E0007D6B2A0E7C6F7F6B070E7E6F020E806F07
:1013F000E5DE0A0E7B6F5ADDDEDD1FD11E0E2C6E80
:10140000010E7B6F7D6B2A0E7C6F7F6B070E7E6FEC
:10141000020E806FD3DE0A0E7B6F48DDCCDD0DD16E
:101420001F0E2C6E010E7B6F7D6B2A0E7C6F7F6B07
:10143000070E7E6F020E806FC1DE0A0E7B6F36DDF7
:10144000BADDFBD0200E2C6E010E7B6F7D6B2A0E59
:101450007C6F7F6B070E7E6F020E806FAFDE0A0E11
:101460007B6F24DDA8DDE9D0210E2C6E010E7B6F91
:101470007D6B2A0E7C6F7F6B070E7E6F020E806F76
:101480009DDE0A0E7B6F12DD96DDD7D0220E2C6E0C
:10149000010E7B6F7D6B2A0E7C6F7F6B070E7E6F5C
:1014A000020E806F8BDE0A0E7B6F00DD84DDC5D0FF
:1014B000230E2C6E010E7B6F7D6B2A0E7C6F7F6B73
:1014C000070E7E6F020E806F79DE0A0E7B6FEEDCF8
:1014D00072DDB3D0240E2C6E010E7B6F7D6B2A0E55
:1014E0007C6F7F6B070E7E6F020E806F67DE0A0EC9
:1014F0007B6FDCDC60DDA1D0250E2C6E010E7B6FD6
:101500007D6B2A0E7C6F7F6B070E7E6F020E806FE5
:1015100055DE0A0E7B6FCADC4EDD8FD0260E2C6E98
:10152000010E7B6F7D6B2A0E7C6F7F6B070E7E6FCB
:10153000020E806F43DE0A0E7B6FB8DC3CDD7DD08F
:10154000040E2C6E020E2A6E010E7B6F7D6B2A0E2E
:101550007C6F7F6B070E7E6F020E806F2FDE0A0E90
:101560007B6FA4DC28DD69D0050E2C6E020E2A6E7E
:10157000010E7B6F7D6B2A0E7C6F7F6B070E7E6F7B
:10158000020E806F1BDE0A0E7B6F90DC14DD55D0DF
:10159000060E2C6E020E2A6E010E7B6F7D6B2A0EDC
:1015A0007C6F7F6B070E7E6F020E806F07DE0A0E68
:1015B0007B6F7CDC00DD41D0070E2C6E020E2A6EA4
:1015C000010E7B6F7D6B2A0E7C6F7F6B070E7E6F2B
:1015D000020E806FF3DD0A0E7B6F68DCECDC2DD031
:1015E000080E2C6E020E2A6E010E7B6F7D6B2A0E8A
:1015F0007C6F7F6B070E7E6F020E806FDFDD0A0E41
:101600007B6F54DCD8DC19D0090E2C6E020E2A6ECA
:10161000010E7B6F7D6B2A0E7C6F7F6B070E7E6FDA
:10162000020E806FCBDD0A0E7B6F40DCC4DC05D080
:101630008A0EF66E0E0EF76E6EDC7A2B84D62A6A50
:10164000280E2C6E010E7B6F7D6B2A0E7C6F7F6BDC
:10165000070E7E6F020E806FB1DD0A0E7B6F26DCF7
:10166000AADC2A6A2C6A010E7B6F7D6B2A0E7C6FC6
:101670007F6B070E7E6F020E806FA0DD0A0E7B6F00
:1016800015DC99DC920EF66E0E0EF76E44DC52EF0E
:101690000BF03BA211D03A503924220808E13B92CA
:1016A000DDD4DCD50A0E7B6F01DC5ADC05D00A0ED6
:1016B0007B6F56EC07F054DCA9EF0BF0F86AD09E74
:1016C000078E939E8A8E656B646B796B786BC150C5
:1016D000C00B0F09C16E070EB46E2A6A2B6A2C6A02
:1016E0002D6A2E6A2F6A306A316A326A336A346A26
:1016F000356A366A376A386A800E666F400E676FE1
:10170000200E686F100E696F080E6A6F040E6B6F03
:10171000020E6C6F010E6D6F020E7A6FFA0E7B6F08
:1017200056EC07F07A2FFAD79E0EF66E0E0EF76E75
:101730008BEC07F012D414DCF19CF198F292F09249
:10174000F288F088C00EF21236DC46D4015201E075
:06175000A0D7FAD7030048
:020000040030CA
:0E00000024CE3E1E008781000FC00FE00F408F
:00000001FF
;PIC18F2455
;CRC=3080  CREATED="18-jul.-16 09:38"
